:100000000C942A000C9447000C9447000C94470071
:100010000C9447000C9447000C9447000C94C31AAE
:100020000C9447000C94961A0C9447000C944700CB
:100030000C9447000C9447000C9447000C94470024
:100040000C9447000C9447000C9447000C94470014
:100050000C94470011241FBECFE5D8E0DEBFCDBF12
:1000600011E0A0E6B0E0E0EFFDE302C005900D92E4
:10007000A838B107D9F711E0A8E8B1E001C01D9296
:10008000AD38B107E1F70E9425070C94F61E0C94D9
:100090000000EF92FF920F931F937B018C0120E0F1
:1000A00030E040E05FE40E94F50388238CF0C80153
:1000B000B70120E030E040E05FE40E94C1010E940F
:1000C000B3049B01AC01205030404040504806C072
:1000D000C801B7010E94B3049B01AC01B901CA0178
:1000E0001F910F91FF90EF900895A0E0B0E0EBE733
:1000F000F0E00C947A1EDC012B01FA019C91923005
:1001000008F439C1EB018881823008F433C194309E
:1001100069F4843009F02FC111969C91119789815F
:10012000981709F428C1A0E6B0E025C1843009F48D
:1001300021C18230A9F4923009F01DC19A01AD01AC
:1001400088E0EA010990AE01E90109929E0181501F
:10015000C1F7E201898111969C918923818308C1AD
:10016000923009F407C112962D903C901397EB0141
:100170008A819B811496AD90BD90CD90DC901797AD
:10018000EC80FD800E811F819101281B390BB90184
:1001900037FF04C066277727621B730B6032710537
:1001A0000CF061C0121613066CF537014801062EDB
:1001B00004C096948794779467940A94D2F721E0C8
:1001C00030E040E050E004C0220F331F441F551FB1
:1001D0006A95D2F721503040404050402E213F21B7
:1001E00040235123211531054105510521F021E01E
:1001F00030E040E050E079018A01E628F72808293C
:1002000019293CC0232BD1F1260E371E350146019A
:10021000062E04C096948794779467940A94D2F734
:1002200021E030E040E050E004C0220F331F441FC3
:10023000551F6A95D2F721503040404050402A2146
:100240003B214C215D21211531054105510521F04E
:1002500021E030E040E050E059016A01A628B728CB
:10026000C828D9280BC0821593052CF01C01AA249C
:10027000BB24650103C0EE24FF24870111969C91E5
:10028000D20111968C91981709F445C0992339F041
:10029000A80197012A193B094C095D0906C0A6016E
:1002A00095012E193F09400B510B57FD08C01182D3
:1002B0003382228224833583468357831DC081E0A5
:1002C00081833382228288279927DC01821B930B4A
:1002D000A40BB50B84839583A683B7830DC0220F2F
:1002E000331F441F551F24833583468357838281E0
:1002F000938101979383828324813581468157813D
:10030000DA01C9010197A109B1098F5F9F4FAF4F72
:10031000BF4328F30BC0918333822282EA0CFB1C7B
:100320000C1D1D1DE482F5820683178383E0808304
:10033000248135814681578157FF1AC0C901AA27F8
:1003400097FDA095BA2F81709070A070B0705695EF
:10035000479537952795822B932BA42BB52B848318
:100360009583A683B7838281938101969383828349
:10037000DF0101C0D201CD01CDB7DEB7E2E10C94BF
:10038000961EA0E2B0E0E7ECF1E00C94861E6983D3
:100390007A838B839C832D833E834F835887E9E048
:1003A000EE2EF12CEC0EFD1ECE010196B7010E943F
:1003B0002B068E010F5E1F4FCE010596B8010E94DD
:1003C0002B068A8991E089278A8BC701B801AE0183
:1003D000475E5F4F0E9475000E945605A096E6E0BA
:1003E0000C94A21EA0E2B0E0E8EFF1E00C94861EAF
:1003F00069837A838B839C832D833E834F835887C5
:10040000F9E0EF2EF12CEC0EFD1ECE010196B701A6
:100410000E942B068E010F5E1F4FCE010596B8017C
:100420000E942B06C701B801AE01475E5F4F0E94D4
:1004300075000E945605A096E6E00C94A21EA0E26C
:10044000B0E0E5E2F2E00C947A1E69837A838B8354
:100450009C832D833E834F835887CE010196BE0136
:10046000675F7F4F0E942B06CE010596BE016F5E2F
:100470007F4F0E942B069985923088F089898230BF
:10048000C8F0943019F4823051F404C0843029F457
:10049000923081F480E690E0C6C0923049F420E0CA
:1004A0009A858A89981321E02A87CE010996BBC0D4
:1004B000823049F420E09A858A89981321E02A8BBA
:1004C000CE014196B0C02D843E844F8458886D88FB
:1004D0007E888F88988CEE24FF248701AA24BB2471
:1004E000650140E050E060E070E0E0E0F0E0C10174
:1004F00081709070892BE9F0E60CF71C081D191D1E
:100500009A01AB012A0D3B1D4C1D5D1D80E090E062
:10051000A0E0B0E0E614F7040805190520F481E036
:1005200090E0A0E0B0E0BA01A901480F591F6A1F8E
:100530007B1FAA0CBB1CCC1CDD1C97FE08C081E0F5
:1005400090E0A0E0B0E0A82AB92ACA2ADB2A3196B6
:10055000E032F10549F0660C771C881C991C569412
:10056000479437942794C3CFFA85EA892B893C892D
:100570008B859C85280F391F2E5F3F4F17C0CA01FE
:1005800081709070892B61F016950795F794E79428
:1005900080E090E0A0E0B0E8E82AF92A0A2B1B2BC3
:1005A00076956795579547952F5F3F4F77FDE7CF36
:1005B0000CC0440F551F661F771F17FD4160EE0CDE
:1005C000FF1C001F111F21503040403090E05907A0
:1005D00090E0690790E4790760F32B8F3C8FDB0193
:1005E000CA018F779070A070B07080349105A1051A
:1005F000B10561F447FD0AC0E114F10401051105DC
:1006000029F0405C5F4F6F4F7F4F40781A8EFE1786
:1006100011F081E08A8F4D8F5E8F6F8F78A383E01A
:10062000898FCE0149960E945605A096E2E10C946E
:10063000961EA8E1B0E0EFE1F3E00C94821E69831E
:100640007A838B839C832D833E834F835887B9E0C5
:10065000EB2EF12CEC0EFD1ECE010196B7010E948F
:100660002B068E010F5E1F4FCE010596B8010E942A
:100670002B062985223008F47EC03989323010F4E7
:10068000B8017CC08A859A8989278A87243011F02D
:10069000223031F4231709F06EC060E670E06EC0BE
:1006A000343039F41D861E861F86188A1C861B86E8
:1006B00004C0323021F484E08987B7015FC02B8504
:1006C0003C858B899C89281B390B3C872B87ED84C3
:1006D000FE840F851889AD88BE88CF88D88CEA142F
:1006E000FB040C051D0540F4EE0CFF1C001F111F40
:1006F000215030403C872B8720E030E040E050E044
:1007000080E090E0A0E0B0E460E070E0EA14FB0478
:100710000C051D0540F0282B392B4A2B5B2BEA18C2
:10072000FB080C091D09B695A79597958795EE0CC2
:10073000FF1C001F111F6F5F7F4F6F31710531F775
:10074000DA01C9018F779070A070B0708034910584
:10075000A105B10561F427FD0AC0E114F10401050A
:10076000110529F0205C3F4F4F4F5F4F20782D87B8
:100770003E874F87588BBE01675F7F4FCB010E943A
:1007800056056896EAE00C949E1EA8E1B0E0EBECFA
:10079000F3E00C94861E69837A838B839C832D837C
:1007A0003E834F83588789E0E82EF12CEC0EFD1E26
:1007B000CE010196B7010E942B068E010F5E1F4FDE
:1007C000CE010596B8010E942B068985823040F043
:1007D0008989823028F0C701B8010E94A30601C0B0
:1007E0008FEF6896E6E00C94A21EA8E1B0E0EBEF74
:1007F000F3E00C94861E69837A838B839C832D831C
:100800003E834F83588789E0E82EF12CEC0EFD1EC5
:10081000CE010196B7010E942B068E010F5E1F4F7D
:10082000CE010596B8010E942B068985823040F0E2
:100830008989823028F0C701B8010E94A30601C04F
:100840008FEF6896E6E00C94A21EA8E1B0E0EBE220
:10085000F4E00C94861E69837A838B839C832D83BA
:100860003E834F83588789E0E82EF12CEC0EFD1E65
:10087000CE010196B7010E942B068E010F5E1F4F1D
:10088000CE010596B8010E942B068985823040F082
:100890008989823028F0C701B8010E94A30601C0EF
:1008A00081E06896E6E00C94A21EA8E0B0E0EBE5DB
:1008B000F4E00C94831E9B01AC0183E08983DA0190
:1008C000C9018827B7FD83959927AA27BB27B82E8A
:1008D000211531054105510519F482E089833AC09B
:1008E0008823A9F0203080E0380780E0480780E8BE
:1008F000580729F460E070E080E09FEC30C0EE24FF
:10090000FF248701E21AF30A040B150B02C07901D8
:100910008A018EE1C82ED12CDC82CB82ED82FE8250
:100920000F831887C801B7010E94070501971816A1
:10093000190684F4082E04C0EE0CFF1C001F111FC2
:100940000A94D2F7ED82FE820F831887C81AD90A5B
:10095000DC82CB82BA82CE0101960E94560528968F
:10096000E9E00C949F1EACE0B0E0E9EBF4E00C94FD
:100970008A1E69837A838B839C83CE010196BE0194
:100980006B5F7F4F0E942B068D81823061F1823038
:1009900050F1843021F48E81882351F12EC02F81B3
:1009A000388537FD20C06E812F3131051CF066235C
:1009B000F9F023C08EE190E0821B930B29853A85E4
:1009C0004B855C8504C056954795379527958A9544
:1009D000D2F76623B1F050954095309521953F4F61
:1009E0004F4F5F4F0EC020E030E040E050E009C0C4
:1009F0002FEF3FEF4FEF5FE704C020E030E040E033
:100A000050E8B901CA012C96E2E00C94A61EEF92C0
:100A1000FF920F931F937B018C0180E0E81680E02A
:100A2000F80681E0080780E0180788F48FEFE816E1
:100A3000F1040105110531F028F088E090E0A0E014
:100A4000B0E017C080E090E0A0E0B0E012C080E02D
:100A5000E81680E0F80680E0080781E0180728F033
:100A600088E190E0A0E0B0E004C080E190E0A0E088
:100A7000B0E020E230E040E050E0281B390B4A0BA8
:100A80005B0B04C016950795F794E7948A95D2F707
:100A9000F701E859FF4F8081281B310941095109AD
:100AA000C9011F910F91FF90EF900895DF92EF928F
:100AB000FF920F931F93FC01E480F580068117815C
:100AC000D1808081823048F480E090E0A0E1B0E005
:100AD000E82AF92A0A2B1B2BA5C0843009F49FC0F1
:100AE000823021F4EE24FF24870105C0E114F104D3
:100AF0000105110519F4E0E0F0E096C06281738110
:100B00009FEF623879070CF05BC022E83FEF261BAD
:100B1000370B2A3131052CF020E030E040E050E086
:100B20002AC0B801A701022E04C076956795579593
:100B300047950A94D2F781E090E0A0E0B0E004C0CD
:100B4000880F991FAA1FBB1F2A95D2F70197A109E9
:100B5000B1098E219F21A023B1230097A105B105E2
:100B600021F081E090E0A0E0B0E09A01AB01282BF9
:100B7000392B4A2B5B2BDA01C9018F779070A0705B
:100B8000B07080349105A105B10539F427FF09C083
:100B9000205C3F4F4F4F5F4F04C0215C3F4F4F4F92
:100BA0005F4FE0E0F0E02030A0E03A07A0E04A0725
:100BB000A0E45A0710F0E1E0F0E079018A0127C0D3
:100BC0006038710564F5FB01E158FF4FD801C7019A
:100BD0008F779070A070B07080349105A105B10539
:100BE00039F4E7FE0DC080E490E0A0E0B0E004C07E
:100BF0008FE390E0A0E0B0E0E80EF91E0A1F1B1F93
:100C000017FF05C016950795F794E794319687E08E
:100C100016950795F794E7948A95D1F705C0EE24C9
:100C2000FF248701EFEFF0E06E2F67956627679549
:100C3000902F9F77D794DD24D7948E2F8695492FB8
:100C4000462B582F5D29B701CA011F910F91FF90C4
:100C5000EF90DF900895FC01DB01408151812281FA
:100C6000622F6F7770E0221F2227221F9381892F26
:100C7000880F822B282F30E0991F9927991F1196F2
:100C80009C93119721153105A9F541155105610571
:100C9000710511F482E037C082E89FEF13969C93B0
:100CA0008E9312979A01AB0167E0220F331F441F06
:100CB000551F6A95D1F783E08C930DC0220F331F27
:100CC000441F551F12968D919C911397019713966F
:100CD0009C938E931297203080E0380780E048077D
:100CE00080E4580758F314962D933D934D935C93ED
:100CF000179708952F3F310579F441155105610586
:100D0000710519F484E08C93089564FF03C081E0B9
:100D10008C9312C01C9210C02F57304013963C93F6
:100D20002E93129783E08C9387E0440F551F661F24
:100D3000771F8A95D1F7706414964D935D936D93E8
:100D40007C93179708951F93DC01FB019C919230CF
:100D500008F447C08081823008F443C0943051F4D5
:100D600011961C91843099F58181682F70E0611B88
:100D700071093FC0843021F0923031F48230B9F1F2
:100D80008181882389F12DC011961C9111978230A1
:100D9000F1F081811817D9F412962D913C91139797
:100DA000828193818217930794F028173907BCF04A
:100DB00014968D919D910D90BC91A02D248135812B
:100DC00046815781281739074A075B0718F4112312
:100DD00041F00AC082179307A407B50740F4112316
:100DE00019F061E070E005C06FEF7FEF02C060E0D6
:100DF00070E0CB011F910895DF93CF93CDB7DEB79D
:100E000081E062E041E00E94DF1181E062E040E0C9
:100E10000E94CA12CF91DF910895DF93CF93CDB78F
:100E2000DEB781E062E041E00E94CA12CF91DF911B
:100E30000895DF93CF93CDB7DEB781E062E040E065
:100E40000E94CA12CF91DF9108950F931F93DF93F1
:100E5000CF93CDB7DEB7C558D0400FB6F894DEBFFC
:100E60000FBECDBFFE01EB57FF4F1082FE01EC57C6
:100E7000FF4F1082FE01ED57FF4F1082FE01EE572B
:100E8000FF4F81E080830E94C31182E791E00E94BE
:100E9000A21C85E891E00E941C1C0E94A11089E719
:100EA00091E00E94F01A2AEF3FE081E0B9010E9430
:100EB000351B0E94FC066AC2FE01EB57FF4F1082F1
:100EC0000E94B90D0E94540E88E691E02DE631E0B3
:100ED000B90145E00E94EF0EFE01EB57FF4F808302
:100EE000FE01E558FF4F80E090E0A0E2B1E480838E
:100EF0009183A283B3838E0109581F4FFE01E558E9
:100F0000FF4F608171818281938120E030E04AEF60
:100F100054E40E941F02DC01CB01F801808391831D
:100F2000A283B383FE01E958FF4F60817181828102
:100F3000938120E030E040E85FE30E9425048823AD
:100F400044F4FE01EB58FF4F81E090E091838083F1
:100F500064C0FE01E958FF4F6081718182819381F5
:100F600020E03FEF4FE757E40E94C50318160CF04E
:100F700043C0FE01E558FF4F6081718182819381FA
:100F800020E030E040E251E40E941F02DC01CB018E
:100F90008E010B581F4FBC01CD010E944900DC019E
:100FA000CB01F801918380831FC0FE01ED58FF4FF4
:100FB00088EC90E091838083FE01ED58FF4F8081A3
:100FC00091810197F1F7FE01ED58FF4F91838083E6
:100FD000DE01AB58BF4FFE01EB58FF4F808191817E
:100FE000019711969C938E93FE01EB58FF4F8081E1
:100FF00091810097D1F627C08E010B581F4FFE013B
:10100000E958FF4F60817181828193810E9449007C
:10101000DC01CB01F80191838083DE01AF58BF4F23
:10102000FE01EB58FF4F808191818D939C93FE01CF
:10103000EF58FF4F808191810197F1F7FE01EF5842
:10104000FF4F91838083FE01EB57FF4F80810E9409
:10105000C71DFE01E359FF4F80E090E0A8E4B2E431
:1010600080839183A283B3838E0107591F4FFE01B2
:10107000E359FF4F608171818281938120E030E0EC
:101080004AEF54E40E941F02DC01CB01F801808387
:101090009183A283B383FE01E759FF4F6081718181
:1010A0008281938120E030E040E85FE30E942504E4
:1010B000882344F4FE01E959FF4F81E090E09183D9
:1010C000808364C0FE01E759FF4F60817181828196
:1010D000938120E03FEF4FE757E40E94C5031816C5
:1010E0000CF043C0FE01E359FF4F608171818281A2
:1010F000938120E030E040E251E40E941F02DC01D5
:10110000CB018E0109591F4FBC01CD010E9449003E
:10111000DC01CB01F801918380831FC0FE01EB59F4
:10112000FF4F88EC90E091838083FE01EB59FF4FE5
:10113000808191810197F1F7FE01EB59FF4F918377
:101140008083DE01A959BF4FFE01E959FF4F80811D
:101150009181019711969C938E93FE01E959FF4F5F
:10116000808191810097D1F628C08E0109591F4FC7
:10117000FE01E759FF4F60817181828193810E9456
:101180004900DC01CB01F80191838083DE01AD5978
:10119000BF4FFE01E959FF4F8081918111969C93C9
:1011A0008E93FE01ED59FF4F808191810197F1F7F8
:1011B000FE01ED59FF4F91838083FE01EB57FF4FF6
:1011C0008081803909F0E2C0FE01EF57FF4F1082A5
:1011D000D2C0FE01EF57FF4F8081882F90E08096AC
:1011E000AC01FE01EF57FF4F8081882F90E0FC019A
:1011F000E359FE4F2081CA01622F0E942211FE0195
:10120000E15AFF4F80E090E0AAEFB3E4808391833E
:10121000A283B3838E01055A1F4FFE01E15AFF4F8F
:10122000608171818281938120E030E04AEF54E453
:101230000E941F02DC01CB01F80180839183A2830D
:10124000B383FE01E55AFF4F6081718182819381F2
:1012500020E030E040E85FE30E942504882344F466
:10126000FE01E75AFF4F81E090E09183808364C0E4
:10127000FE01E55AFF4F608171818281938120E0F8
:101280003FEF4FE757E40E94C50318160CF043C028
:10129000FE01E15AFF4F608171818281938120E0DC
:1012A00030E040E251E40E941F02DC01CB018E01DC
:1012B000075A1F4FBC01CD010E944900DC01CB0140
:1012C000F801918380831FC0FE01E95AFF4F88EC2B
:1012D00090E091838083FE01E95AFF4F80819181E4
:1012E0000197F1F7FE01E95AFF4F91838083DE01F8
:1012F000A75ABF4FFE01E75AFF4F808191810197A6
:1013000011969C938E93FE01E75AFF4F8081918145
:101310000097D1F627C08E01075A1F4FFE01E55AEC
:10132000FF4F60817181828193810E944900DC01BD
:10133000CB01F80191838083DE01AB5ABF4FFE01E0
:10134000E75AFF4F808191818D939C93FE01EB5A68
:10135000FF4F808191810197F1F7FE01EB5AFF4F1A
:1013600091838083DE01AF57BF4FFE01EF57FF4FE0
:1013700080818F5F8C93FE01EF57FF4F8081853016
:1013800008F427CFFE01EE57FF4F1082FE01EE5703
:10139000FF4F8081882309F08FCD0E94DE1DFE0162
:1013A000ED57FF4F8083FE01EF5AFF4F80E090E042
:1013B000A0EAB1E480839183A283B3838E01035BAF
:1013C0001F4FFE01EF5AFF4F60817181828193812F
:1013D00020E030E04AEF54E40E941F02DC01CB0120
:1013E000F80180839183A283B383FE01E35BFF4F07
:1013F000608171818281938120E030E040E85FE389
:101400000E942504882344F4FE01E55BFF4F81E040
:1014100090E09183808364C0FE01E35BFF4F6081B5
:1014200071818281938120E03FEF4FE757E40E9472
:10143000C50318160CF043C0FE01EF5AFF4F608140
:1014400071818281938120E030E040E251E40E948A
:101450001F02DC01CB018E01055B1F4FBC01CD01DA
:101460000E944900DC01CB01F801918380831FC0F9
:10147000FE01E75BFF4F88EC90E091838083FE01E3
:10148000E75BFF4F808191810197F1F7FE01E75BF8
:10149000FF4F91838083DE01A55BBF4FFE01E55BBB
:1014A000FF4F80819181019711969C938E93FE014D
:1014B000E55BFF4F808191810097D1F628C08E01B6
:1014C000055B1F4FFE01E35BFF4F608171818281ED
:1014D00093810E944900DC01CB01F8019183808354
:1014E000DE01A95BBF4FFE01E55BFF4F808191816B
:1014F00011969C938E93FE01E95BFF4F8081918151
:101500000197F1F7FE01E95BFF4F91838083FE01B4
:10151000ED57FF4F80818B3209F0C3C1FE01EC57BC
:10152000FF4F1082FE01ED57FF4F10820E942B0FDC
:10153000FE01E058FF4F1082A7C0FE01E058FF4FA8
:101540008081882F90E08096AC01FE01E058FF4F2B
:101550008081882F90E0FC01E359FE4F8081882F25
:1015600090E09C01CA01B9010E946311FE01ED5B8C
:10157000FF4F80E090E0A8E4B2E480839183A283EF
:10158000B3838E01015C1F4FFE01ED5BFF4F608155
:1015900071818281938120E030E04AEF54E40E941F
:1015A0001F02DC01CB01F80180839183A283B38306
:1015B000FE01FF96608171818281938120E030E09D
:1015C00040E85FE30E94250488232CF481E090E04A
:1015D0009EAF8DAF46C0FE01FF9660817181828112
:1015E000938120E03FEF4FE757E40E94C5031816B0
:1015F00064F5FE01ED5BFF4F608171818281938113
:1016000020E030E040E251E40E941F02DC01CB0107
:10161000BC01CD010E944900DC01CB019EAF8DAF22
:101620000FC088EC90E09CAF8BAF8BAD9CAD019769
:10163000F1F79CAF8BAF8DAD9EAD01979EAF8DAF97
:101640008DAD9EAD009769F716C0FE01FF966081D3
:101650007181828193810E944900DC01CB019EAFA0
:101660008DAF8DAD9EAD9AAF89AF89AD9AAD019723
:10167000F1F79AAF89AFDE01A058BF4FFE01E058E5
:10168000FF4F80818F5F8C93FE01E058FF4F808178
:10169000853008F452CF88E691E02DE631E0B901BB
:1016A00045E00E94EF0EFE01EC57FF4F8083FE01E4
:1016B000EC57FF4F80810E94C71D80E090E0A8E4B6
:1016C000B2E48DAB9EABAFABB8AF6DA97EA98FA9CD
:1016D00098AD20E030E04AEF54E40E941F02DC01A4
:1016E000CB0189AB9AABABABBCAB69A97AA98BA98F
:1016F0009CA920E030E040E85FE30E9425048823B5
:101700002CF481E090E098AB8FA73FC069A97AA93B
:101710008BA99CA920E03FEF4FE757E40E94C50347
:1017200018164CF56DA97EA98FA998AD20E030E080
:1017300040E251E40E941F02DC01CB01BC01CD015B
:101740000E944900DC01CB0198AB8FA70FC088EC49
:1017500090E09EA78DA78DA59EA50197F1F79EA766
:101760008DA78FA598A9019798AB8FA78FA598A94A
:10177000009769F714C069A97AA98BA99CA90E944E
:101780004900DC01CB0198AB8FA78FA598A99CA736
:101790008BA78BA59CA50197F1F79CA78BA70E940F
:1017A000DE1DFE01ED57FF4F808380E090E0A0EF4B
:1017B000B1E48FA398A7A9A7BAA76FA178A589A517
:1017C0009AA520E030E04AEF54E40E941F02DC01B9
:1017D000CB018BA39CA3ADA3BEA36BA17CA18DA1C8
:1017E0009EA120E030E040E85FE30E9425048823CA
:1017F0002CF481E090E09AA389A33FC06BA17CA167
:101800008DA19EA120E03FEF4FE757E40E94C50362
:1018100018164CF56FA178A589A59AA520E030E0AF
:1018200040E251E40E941F02DC01CB01BC01CD016A
:101830000E944900DC01CB019AA389A30FC088EC68
:1018400090E098A38F8F8F8D98A10197F1F798A3BF
:101850008F8F89A19AA101979AA389A389A19AA19F
:10186000009769F714C06BA17CA18DA19EA10E9475
:101870004900DC01CB019AA389A389A19AA19E8F7B
:101880008D8F8D8D9E8D0197F1F79E8F8D8FFE012F
:10189000ED57FF4F8081803609F078CD0E94C60F4A
:1018A00075CDFE01ED57FF4F80818D3209F041C1AA
:1018B000FE01EC57FF4F1082FE01ED57FF4F1082E3
:1018C0000E940610FE01E158FF4F108294C0FE01F5
:1018D000E158FF4F8081882F90E08096AC01FE0197
:1018E000E158FF4F8081882F90E0FC01E359FE4FC3
:1018F0008081882F90E09C01CA01B9010E94631188
:1019000080E090E0A8E4B2E4898F9A8FAB8FBC8F1F
:10191000698D7A8D8B8D9C8D20E030E04AEF54E408
:101920000E941F02DC01CB018D8B9E8BAF8BB88F89
:101930006D897E898F89988D20E030E040E85FE3F3
:101940000E94250488232CF481E090E09C8B8B8BF3
:101950003FC06D897E898F89988D20E03FEF4FE7EA
:1019600057E40E94C50318164CF5698D7A8D8B8D4E
:101970009C8D20E030E040E251E40E941F02DC0137
:10198000CB01BC01CD010E944900DC01CB019C8B45
:101990008B8B0FC088EC90E09A8B898B89899A8910
:1019A0000197F1F79A8B898B8B899C8901979C8B86
:1019B0008B8B8B899C89009769F714C06D897E8910
:1019C0008F89988D0E944900DC01CB019C8B8B8B09
:1019D0008B899C89988B8F878F8598890197F1F7E0
:1019E000988B8F87DE01A158BF4FFE01E158FF4F52
:1019F00080818F5F8C93FE01E158FF4F808185309D
:101A000008F465CF88E691E02DE631E0B90145E0C4
:101A10000E94EF0EFE01EC57FF4F8083FE01EC5752
:101A2000FF4F80810E94C71D80E090E0A8E4B2E4EF
:101A30008B879C87AD87BE876B857C858D859E85D2
:101A400020E030E04AEF54E40E941F02DC01CB01A9
:101A50008F839887A987BA876F81788589859A85CA
:101A600020E030E040E85FE30E94250488232CF466
:101A700081E090E09E838D833FC06F81788589856A
:101A80009A8520E03FEF4FE757E40E94C503181600
:101A90004CF56B857C858D859E8520E030E040E2AD
:101AA00051E40E941F02DC01CB01BC01CD010E9468
:101AB0004900DC01CB019E838D830FC088EC90E050
:101AC0009C838B838B819C810197F1F79C838B8313
:101AD0008D819E8101979E838D838D819E8100974C
:101AE00069F714C06F81788589859A850E944900BD
:101AF000DC01CB019E838D838D819E819A838983B6
:101B000089819A810197F1F79A8389830E94DE1D6A
:101B1000FE01ED57FF4F8083FE01ED57FF4F80819F
:101B2000803309F033CCFE01EE57FF4F81E0808314
:101B30002DCCFE01ED57FF4F8081803709F026CC78
:101B400008C00E940D070E94DE1DFE01ED57FF4FE9
:101B50008083FE01ED57FF4F8081803791F3FE01B6
:101B6000ED57FF4F8081803809F010CC0E94190793
:101B70000DCC0F931F93DF93CF93CDB7DEB72F9785
:101B80000FB6F894DEBF0FBECDBF1F867EC08F8517
:101B9000082F10E00E94DE1DF801E859FE4F8083F7
:101BA00080E090E0A8E4B2E48B879C87AD87BE8795
:101BB0006B857C858D859E8520E030E04AEF54E47E
:101BC0000E941F02DC01CB018F839887A987BA8707
:101BD0006F81788589859A8520E030E040E85FE371
:101BE0000E94250488232CF481E090E09E838D835D
:101BF0003FC06F81788589859A8520E03FEF4FE768
:101C000057E40E94C50318164CF56B857C858D85BD
:101C10009E8520E030E040E251E40E941F02DC019A
:101C2000CB01BC01CD010E944900DC01CB019E83A8
:101C30008D830FC088EC90E09C838B838B819C818B
:101C40000197F1F79C838B838D819E8101979E8301
:101C50008D838D819E81009769F714C06F8178858F
:101C600089859A850E944900DC01CB019E838D8382
:101C70008D819E819A83898389819A810197F1F769
:101C80009A8389838F858F5F8F878F85853008F44E
:101C90007ECF2F960FB6F894DEBF0FBECDBFCF918B
:101CA000DF911F910F9108950F931F93DF93CF93AF
:101CB000CDB7DEB72F970FB6F894DEBF0FBECDBFFE
:101CC0001F867EC08F85082F10E00E94DE1DF80160
:101CD000E359FE4F808380E090E0A8E4B2E48B8774
:101CE0009C87AD87BE876B857C858D859E8520E032
:101CF00030E04AEF54E40E941F02DC01CB018F83E5
:101D00009887A987BA876F81788589859A8520E029
:101D100030E040E85FE30E94250488232CF481E052
:101D200090E09E838D833FC06F81788589859A85F9
:101D300020E03FEF4FE757E40E94C50318164CF52B
:101D40006B857C858D859E8520E030E040E251E406
:101D50000E941F02DC01CB01BC01CD010E944900A1
:101D6000DC01CB019E838D830FC088EC90E09C83C7
:101D70008B838B819C810197F1F79C838B838D8171
:101D80009E8101979E838D838D819E81009769F747
:101D900014C06F81788589859A850E944900DC018D
:101DA000CB019E838D838D819E819A8389838981D6
:101DB0009A810197F1F79A8389838F858F5F8F8747
:101DC0008F85853008F47ECF2F960FB6F894DEBF4E
:101DD0000FBECDBFCF91DF911F910F910895DF937B
:101DE000CF93CDB7DEB728970FB6F894DEBF0FBEFE
:101DF000CDBF9D838C837F836E83488780E98B83EF
:101E00001A82198216C089819A81FC01E859FE4F15
:101E1000208189819A81FC01E359FE4F8081281736
:101E200019F080E18B830DC089819A8101969A8394
:101E300089838885282F30E089819A8182179307CA
:101E400014F38B8128960FB6F894DEBF0FBECDBF7A
:101E5000CF91DF9108950F931F93DF93CF93CDB769
:101E6000DEB72F970FB6F894DEBF0FBECDBF1F862B
:101E70007EC08F85082F10E00E94DE1DF801E85912
:101E8000FE4F808380E090E0A8E4B2E48B879C87DB
:101E9000AD87BE876B857C858D859E8520E030E093
:101EA0004AEF54E40E941F02DC01CB018F83988724
:101EB000A987BA876F81788589859A8520E030E087
:101EC00040E85FE30E94250488232CF481E090E041
:101ED0009E838D833FC06F81788589859A8520E0B8
:101EE0003FEF4FE757E40E94C50318164CF56B858A
:101EF0007C858D859E8520E030E040E251E40E94A3
:101F00001F02DC01CB01BC01CD010E944900DC01B4
:101F1000CB019E838D830FC088EC90E09C838B83E4
:101F20008B819C810197F1F79C838B838D819E81AE
:101F300001979E838D838D819E81009769F714C0E0
:101F40006F81788589859A850E944900DC01CB01E3
:101F50009E838D838D819E819A83898389819A81D5
:101F60000197F1F79A8389838F858F5F8F878F859C
:101F7000853008F47ECF2F960FB6F894DEBF0FBEE3
:101F8000CDBFCF91DF911F910F910895DF93CF9334
:101F9000CDB7DEB789E791E00E94F01A1092880170
:101FA00004C080E064E60E94BC10809188018F30FC
:101FB000C0F31092880104C082E060E00E94BC106F
:101FC000809188018330C0F31092880104C081E0C1
:101FD00064E60E94BC10809188018F30C0F310929B
:101FE00088010E94191B82E060E00E94BC10CF9122
:101FF000DF910895DF93CF93CDB7DEB7809188014D
:102000008F5F80938801CF91DF9108950F931F9385
:10201000DF93CF93CDB7DEB72F970FB6F894DEBF1F
:102020000FBECDBF1F867EC08F85082F10E00E9497
:10203000DE1DF801E859FE4F808380E090E0A8E4BF
:10204000B2E48B879C87AD87BE876B857C858D8549
:102050009E8520E030E04AEF54E40E941F02DC013C
:10206000CB018F839887A987BA876F817885898507
:102070009A8520E030E040E85FE30E942504882351
:102080002CF481E090E09E838D833FC06F81788542
:1020900089859A8520E03FEF4FE757E40E94C5030A
:1020A00018164CF56B857C858D859E8520E030E08B
:1020B00040E251E40E941F02DC01CB01BC01CD01D2
:1020C0000E944900DC01CB019E838D830FC088EC08
:1020D00090E09C838B838B819C810197F1F79C839B
:1020E0008B838D819E8101979E838D838D819E81BF
:1020F000009769F714C06F81788589859A850E9459
:102100004900DC01CB019E838D838D819E819A8362
:10211000898389819A810197F1F79A8389838F85D1
:102120008F5F8F878F85853008F47ECF2F960FB60F
:10213000F894DEBF0FBECDBFCF91DF911F910F91FD
:102140000895DF93CF93CDB7DEB781E060E041E043
:102150000E94DF1181E061E041E00E94DF1181E037
:1021600060E040E00E94CA1281E061E040E00E942D
:10217000CA12CF91DF910895DF93CF9300D00F92D1
:10218000CDB7DEB78A836B838A81882359F481E0D7
:1021900060E041E00E94CA1281E061E040E00E94FC
:1021A000CA121BC08A81813059F481E060E040E0AE
:1021B0000E94CA1281E061E041E00E94CA120DC093
:1021C0008A81823051F481E060E040E00E94CA12CE
:1021D00081E061E040E00E94CA128B81482F50E00C
:1021E000CA019C01220F331FC9019695982F882799
:1021F00097958795821B930B840F951FAA2797FDB0
:10220000A095BA2FBC01CD010E945504DC01CB0181
:10221000BC01CD0120E030E048EC52E40E941903FB
:10222000DC01CB01BC01CD010E944900DC01CB01E6
:10223000898389810E94481A0F900F900F90CF9147
:10224000DF910895DF93CF9300D000D0CDB7DEB7F4
:102250009A8389836B830E943B1C0E94931C883065
:1022600011F01C8228C089819A8180709770880F34
:10227000892F881F990B9195806A0E94561C0E9495
:10228000931C883111F01C8216C089810E94561C53
:102290000E94931C883211F01C820DC08B810E9419
:1022A000561C0E94931C883211F01C8204C00E94AC
:1022B0004B1C81E08C838C810F900F900F900F90BE
:1022C000CF91DF910895DF93CF9300D000D00F928C
:1022D000CDB7DEB79A8389837C836B830E943B1CD6
:1022E0000E94931C883011F01D8244C089819A811C
:1022F00080709770880F892F881F990B9195806A3D
:102300000E94561C0E94931C883111F01D8232C01D
:1023100089810E94561C0E94931C883211F01D82F4
:1023200029C00E943B1C0E94931C803111F01D8229
:1023300021C089819A8180709770880F892F881FAA
:10234000990B9195816A0E94561C0E94931C8034BF
:1023500011F01D820FC00E94801CEB81FC818083E4
:102360000E94931C883511F01D8204C00E944B1CF2
:1023700081E08D838D810F900F900F900F900F90C3
:10238000CF91DF910895DF93CF93CDB7DEB7AFE55F
:10239000B0E0EFE5F0E0808180688C93CF91DF9131
:1023A0000895DF93CF93CDB7DEB7AFE5B0E0EFE5AB
:1023B000F0E080818F778C93CF91DF910895DF9348
:1023C000CF9300D000D00F92CDB7DEB789836A8358
:1023D0004B838A81883008F0D5C08981843008F029
:1023E000D1C08981282F30E03D832C838C819D8151
:1023F0008130910509F443C02C813D8122303105A3
:102400002CF48C819D81009771F0BCC02C813D81A2
:102410002230310509F45FC08C819D8183309105A4
:1024200009F485C0AFC08B818130A1F4AAE3B0E08C
:10243000EAE3F0E08081482F8A81282F30E081E0B4
:1024400090E0022E02C0880F991F0A94E2F7842BB5
:102450008C9398C0AAE3B0E0EAE3F0E08081482FD3
:102460008A81282F30E081E090E0022E02C0880FA0
:10247000991F0A94E2F7809584238C9383C08B8103
:102480008130A1F4A7E3B0E0E7E3F0E08081482FDA
:102490008A81282F30E081E090E0022E02C0880F70
:1024A000991F0A94E2F7842B8C936CC0A7E3B0E0E9
:1024B000E7E3F0E08081482F8A81282F30E081E037
:1024C00090E0022E02C0880F991F0A94E2F78095CF
:1024D00084238C9357C08B818130A1F4A4E3B0E0B6
:1024E000E4E3F0E08081482F8A81282F30E081E00A
:1024F00090E0022E02C0880F991F0A94E2F7842B05
:102500008C9340C0A4E3B0E0E4E3F0E08081482F86
:102510008A81282F30E081E090E0022E02C0880FEF
:10252000991F0A94E2F7809584238C932BC08B81AA
:102530008130A1F4A1E3B0E0E1E3F0E08081482F35
:102540008A81282F30E081E090E0022E02C0880FBF
:10255000991F0A94E2F7842B8C9314C0A1E3B0E096
:10256000E1E3F0E08081482F8A81282F30E081E08C
:1025700090E0022E02C0880F991F0A94E2F780951E
:1025800084238C930F900F900F900F900F90CF910A
:10259000DF910895DF93CF9300D000D00F92CDB795
:1025A000DEB789836A834B838A81883008F0D5C07F
:1025B0008981843008F0D1C08981282F30E03D83A3
:1025C0002C838C819D818130910509F443C02C813D
:1025D0003D81223031052CF48C819D81009771F072
:1025E000BCC02C813D812230310509F45FC08C8153
:1025F0009D818330910509F485C0AFC08B81813006
:10260000A1F4ABE3B0E0EBE3F0E08081482F8A81F6
:10261000282F30E081E090E0022E02C0880F991F41
:102620000A94E2F7842B8C9398C0ABE3B0E0EBE321
:10263000F0E08081482F8A81282F30E081E090E00F
:10264000022E02C0880F991F0A94E2F78095842316
:102650008C9383C08B818130A1F4A8E3B0E0E8E3E0
:10266000F0E08081482F8A81282F30E081E090E0DF
:10267000022E02C0880F991F0A94E2F7842B8C93D4
:102680006CC0A8E3B0E0E8E3F0E08081482F8A81E5
:10269000282F30E081E090E0022E02C0880F991FC1
:1026A0000A94E2F7809584238C9357C08B81813004
:1026B000A1F4A5E3B0E0E5E3F0E08081482F8A8152
:1026C000282F30E081E090E0022E02C0880F991F91
:1026D0000A94E2F7842B8C9340C0A5E3B0E0E5E3D5
:1026E000F0E08081482F8A81282F30E081E090E05F
:1026F000022E02C0880F991F0A94E2F78095842366
:102700008C932BC08B818130A1F4A2E3B0E0E2E393
:10271000F0E08081482F8A81282F30E081E090E02E
:10272000022E02C0880F991F0A94E2F7842B8C9323
:1027300014C0A2E3B0E0E2E3F0E08081482F8A8198
:10274000282F30E081E090E0022E02C0880F991F10
:102750000A94E2F7809584238C930F900F900F904A
:102760000F900F90CF91DF910895DF93CF9300D01A
:1027700000D00F92CDB7DEB78A836B8319828B812D
:10278000883008F084C08A81843008F080C08A8153
:10279000282F30E03D832C834C815D8141305105F1
:1027A00079F18C819D818230910534F42C813D81B9
:1027B0002115310569F06BC04C815D8142305105B6
:1027C000B9F18C819D818330910509F449C05FC0C6
:1027D000E9E3F0E08081282F30E08B81882F90E0C2
:1027E000A90102C0559547958A95E2F7CA01817003
:1027F0009070882319F081E0898349C0198247C00D
:10280000E6E3F0E08081282F30E08B81882F90E094
:10281000A90102C0559547958A95E2F7CA018170D2
:102820009070882319F081E0898331C019822FC00C
:10283000E3E3F0E08081282F30E08B81882F90E067
:10284000A90102C0559547958A95E2F7CA018170A2
:102850009070882319F081E0898319C0198217C00C
:10286000E0E3F0E08081282F30E08B81882F90E03A
:10287000A90102C0559547958A95E2F7CA01817072
:102880009070882319F081E0898301C019828981C1
:102890000F900F900F900F900F90CF91DF910895B0
:1028A000DF93CF9300D000D0CDB7DEB789836A83A2
:1028B0008981843090F58981282F30E03C832B83F7
:1028C0008B819C8181309105D1F02B813C8122301C
:1028D00031052CF48B819C81009761F01EC02B8107
:1028E0003C812230310581F08B819C8183309105C0
:1028F00081F013C0EAE3F0E08A8180830EC0E7E351
:10290000F0E08A81808309C0E4E3F0E08A8180837B
:1029100004C0E1E3F0E08A8180830F900F900F9074
:102920000F90CF91DF910895DF93CF9300D000D027
:10293000CDB7DEB789836A838981843090F5898138
:10294000282F30E03C832B838B819C818130910543
:10295000D1F02B813C81223031052CF48B819C817C
:10296000009761F01EC02B813C812230310581F03F
:102970008B819C818330910581F013C0EBE3F0E003
:102980008A8180830EC0E8E3F0E08A81808309C0F9
:10299000E5E3F0E08A81808304C0E2E3F0E08A812D
:1029A00080830F900F900F900F90CF91DF9108953B
:1029B000DF93CF9300D000D0CDB7DEB78A831982E2
:1029C0008A81843090F58A81282F30E03C832B83E4
:1029D0008B819C8181309105D1F02B813C8122300B
:1029E00031052CF48B819C81009761F01EC02B81F6
:1029F0003C812230310581F08B819C8183309105AF
:102A000081F013C0E9E3F0E0808189830EC0E6E342
:102A1000F0E08081898309C0E3E3F0E0808189836D
:102A200004C0E0E3F0E08081898389810F900F90FA
:102A30000F900F90CF91DF910895DF93CF93CDB793
:102A4000DEB72E970FB6F894DEBF0FBECDBF81E084
:102A500065E041E00E94DF1181E067E041E00E9413
:102A6000DF1180E090E0A0EAB1E48B879C87AD871E
:102A7000BE876B857C858D859E8520E030E04AEFA2
:102A800054E40E941F02DC01CB018F839887A98741
:102A9000BA876F81788589859A8520E030E040E8A3
:102AA0005FE30E94250488232CF481E090E09E835C
:102AB0008D833FC06F81788589859A8520E03FEFBF
:102AC0004FE757E40E94C50318164CF56B857C85CB
:102AD0008D859E8520E030E040E251E40E941F0297
:102AE000DC01CB01BC01CD010E944900DC01CB011E
:102AF0009E838D830FC088EC90E09C838B838B81B9
:102B00009C810197F1F79C838B838D819E81019736
:102B10009E838D838D819E81009769F714C06F819C
:102B2000788589859A850E944900DC01CB019E83C6
:102B30008D838D819E819A83898389819A81019772
:102B4000F1F79A83898380E06FEF0E94501488E345
:102B50000E94B9158CE00E94B91581E00E94B91558
:102B60002E960FB6F894DEBF0FBECDBFCF91DF918A
:102B70000895DF93CF93CDB7DEB7E9970FB6F894FA
:102B8000DEBF0FBECDBF89AF81E065E040E00E94AF
:102B9000CA1280E090E0A0E8BFE38DAB9EABAFAB84
:102BA000B8AF6DA97EA98FA998AD20E030E04AEFBB
:102BB00054E40E941F02DC01CB0189AB9AABABABA2
:102BC000BCAB69A97AA98BA99CA920E030E040E8B8
:102BD0005FE30E94250488232CF481E090E098AB09
:102BE0008FA73FC069A97AA98BA99CA920E03FEFD4
:102BF0004FE757E40E94C50318164CF56DA97EA94E
:102C00008FA998AD20E030E040E251E40E941F021D
:102C1000DC01CB01BC01CD010E944900DC01CB01EC
:102C200098AB8FA70FC088EC90E09EA78DA78DA5CD
:102C30009EA50197F1F79EA78DA78FA598A901974B
:102C400098AB8FA78FA598A9009769F714C069A9B9
:102C50007AA98BA99CA90E944900DC01CB0198AB01
:102C60008FA78FA598A99CA78BA78BA59CA501973B
:102C7000F1F79CA78BA781E067E041E00E94CA12B0
:102C800080E090E0A0E8BFE38FA398A7A9A7BAA728
:102C90006FA178A589A59AA520E030E04AEF54E419
:102CA0000E941F02DC01CB018BA39CA3ADA3BEA39A
:102CB0006BA17CA18DA19EA120E030E040E85FE304
:102CC0000E94250488232CF481E090E09AA389A334
:102CD0003FC06BA17CA18DA19EA120E03FEF4FE7FB
:102CE00057E40E94C50318164CF56FA178A589A575
:102CF0009AA520E030E040E251E40E941F02DC018E
:102D0000CB01BC01CD010E944900DC01CB019AA39B
:102D100089A30FC088EC90E098A38F8F8F8D98A126
:102D20000197F1F798A38F8F89A19AA101979AA390
:102D300089A389A19AA1009769F714C06BA17CA10E
:102D40008DA19EA10E944900DC01CB019AA389A319
:102D500089A19AA19E8F8D8F8D8D9E8D0197F1F700
:102D60009E8F8D8F80E069AD0E94941480E090E08A
:102D7000A0E8BFE3898F9A8FAB8FBC8F698D7A8D66
:102D80008B8D9C8D20E030E04AEF54E40E941F02BE
:102D9000DC01CB018D8B9E8BAF8BB88F6D897E89CB
:102DA0008F89988D20E030E040E85FE30E942504A1
:102DB00088232CF481E090E09C8B8B8B3FC06D8945
:102DC0007E898F89988D20E03FEF4FE757E40E947E
:102DD000C50318164CF5698D7A8D8B8D9C8D20E07E
:102DE00030E040E251E40E941F02DC01CB01BC0153
:102DF000CD010E944900DC01CB019C8B8B8B0FC065
:102E000088EC90E09A8B898B89899A890197F1F7F0
:102E10009A8B898B8B899C8901979C8B8B8B8B8957
:102E20009C89009769F714C06D897E898F89988D78
:102E30000E944900DC01CB019C8B8B8B8B899C8988
:102E4000988B8F878F8598890197F1F7988B8F875B
:102E500081E067E040E00E94CA1280E090E0A0E8D4
:102E6000BFE38B879C87AD87BE876B857C858D850F
:102E70009E8520E030E04AEF54E40E941F02DC010E
:102E8000CB018F839887A987BA876F8178858985D9
:102E90009A8520E030E040E85FE30E942504882323
:102EA0002CF481E090E09E838D833FC06F81788514
:102EB00089859A8520E03FEF4FE757E40E94C503DC
:102EC00018164CF56B857C858D859E8520E030E05D
:102ED00040E251E40E941F02DC01CB01BC01CD01A4
:102EE0000E944900DC01CB019E838D830FC088ECDA
:102EF00090E09C838B838B819C810197F1F79C836D
:102F00008B838D819E8101979E838D838D819E8190
:102F1000009769F714C06F81788589859A850E942A
:102F20004900DC01CB019E838D838D819E819A8334
:102F3000898389819A810197F1F79A838983E99638
:102F40000FB6F894DEBF0FBECDBFCF91DF910895CD
:102F5000DF93CF93CDB7DEB7E9970FB6F894DEBF16
:102F60000FBECDBF89AF81E065E041E00E94CA128B
:102F700080E090E0A0E8BFE38DAB9EABAFABB8AF15
:102F80006DA97EA98FA998AD20E030E04AEF54E406
:102F90000E941F02DC01CB0189AB9AABABABBCAB8F
:102FA00069A97AA98BA99CA920E030E040E85FE3F9
:102FB0000E94250488232CF481E090E098AB8FA731
:102FC0003FC069A97AA98BA99CA920E03FEF4FE7F0
:102FD00057E40E94C50318164CF56DA97EA98FA968
:102FE00098AD20E030E040E251E40E941F02DC0195
:102FF000CB01BC01CD010E944900DC01CB0198ABA3
:103000008FA70FC088EC90E09EA78DA78DA59EA5E9
:103010000197F1F79EA78DA78FA598A9019798AB67
:103020008FA78FA598A9009769F714C069A97AA9F5
:103030008BA99CA90E944900DC01CB0198AB8FA70A
:103040008FA598A99CA78BA78BA59CA50197F1F7A5
:103050009CA78BA781E067E041E00E94CA1280E054
:1030600090E0A0E8BFE38FA398A7A9A7BAA76FA194
:1030700078A589A59AA520E030E04AEF54E40E94A3
:103080001F02DC01CB018BA39CA3ADA3BEA36BA14C
:103090007CA18DA19EA120E030E040E85FE30E948A
:1030A000250488232CF481E090E09AA389A33FC0F3
:1030B0006BA17CA18DA19EA120E03FEF4FE757E4DB
:1030C0000E94C50318164CF56FA178A589A59AA58D
:1030D00020E030E040E251E40E941F02DC01CB011D
:1030E000BC01CD010E944900DC01CB019AA389A358
:1030F0000FC088EC90E098A38F8F8F8D98A10197D7
:10310000F1F798A38F8F89A19AA101979AA389A318
:1031100089A19AA1009769F714C06BA17CA18DA128
:103120009EA10E944900DC01CB019AA389A389A139
:103130009AA19E8F8D8F8D8D9E8D0197F1F79E8F19
:103140008D8F80E069AD0E94941480E090E0A0E84B
:10315000BFE3898F9A8FAB8FBC8F698D7A8D8B8DF2
:103160009C8D20E030E04AEF54E40E941F02DC0115
:10317000CB018D8B9E8BAF8BB88F6D897E898F89AC
:10318000988D20E030E040E85FE30E94250488232A
:103190002CF481E090E09C8B8B8B3FC06D897E8905
:1031A0008F89988D20E03FEF4FE757E40E94C503D9
:1031B00018164CF5698D7A8D8B8D9C8D20E030E052
:1031C00040E251E40E941F02DC01CB01BC01CD01B1
:1031D0000E944900DC01CB019C8B8B8B0FC088ECDB
:1031E00090E09A8B898B89899A890197F1F79A8B5C
:1031F000898B8B899C8901979C8B8B8B8B899C8974
:10320000009769F714C06D897E898F89988D0E9417
:103210004900DC01CB019C8B8B8B8B899C89988B23
:103220008F878F8598890197F1F7988B8F8781E039
:1032300067E040E00E94CA1280E090E0A0E8BFE3AF
:103240008B879C87AD87BE876B857C858D859E85AA
:1032500020E030E04AEF54E40E941F02DC01CB0181
:103260008F839887A987BA876F81788589859A85A2
:1032700020E030E040E85FE30E94250488232CF43E
:1032800081E090E09E838D833FC06F817885898542
:103290009A8520E03FEF4FE757E40E94C5031816D8
:1032A0004CF56B857C858D859E8520E030E040E285
:1032B00051E40E941F02DC01CB01BC01CD010E9440
:1032C0004900DC01CB019E838D830FC088EC90E028
:1032D0009C838B838B819C810197F1F79C838B83EB
:1032E0008D819E8101979E838D838D819E81009724
:1032F00069F714C06F81788589859A850E94490095
:10330000DC01CB019E838D838D819E819A8389838D
:1033100089819A810197F1F79A838983E9960FB69B
:10332000F894DEBF0FBECDBFCF91DF910895DF933C
:10333000CF9300D00F92CDB7DEB79B838A831982DB
:103340000EC08981282F30E08A819B81FC01E20F29
:10335000F31F80810E94A81789818F5F89838981EB
:10336000282F30E08A819B81FC01E20FF31F8081CE
:10337000882339F70F900F900F90CF91DF91089528
:10338000DF93CF9300D000D00F92CDB7DEB78A8302
:103390006B838A81282F30E03D832C838C819D8133
:1033A00081309105C1F02C813D81223031052CF412
:1033B0008C819D81009761F019C02C813D81223064
:1033C000310569F08C819D818330910561F00EC0DB
:1033D0008B8189830BC08B81805C898307C08B8143
:1033E000805F898303C08B81805B8983898180684A
:1033F0000E94B9150F900F900F900F900F90CF91E2
:10340000DF910895DF93CF9300D000D0CDB7DEB722
:1034100089836A835C834B8389816A810E94C01996
:103420008B819C810E9497190F900F900F900F90A5
:10343000CF91DF910895DF93CF93CDB7DEB7629739
:103440000FB6F894DEBF0FBECDBF9A8B898B8989EA
:103450009A899E012F5F3F4FB9014AE050E00E94D8
:10346000B11ECE0101960E94971962960FB6F8948C
:10347000DEBF0FBECDBFCF91DF910895DF93CF9315
:10348000CDB7DEB781E00E94B915CF91DF910895E5
:10349000DF93CF930F92CDB7DEB78983E2E5F0E0FB
:1034A0001082ECE5F0E08981808381E063E041E017
:1034B0000E94DF11A3E5B0E0E3E5F0E080818F77C3
:1034C0008C93A3E5B0E0E3E5F0E0808188608C9325
:1034D000A3E5B0E0E3E5F0E0808180648C93A3E5B0
:1034E000B0E0E3E5F0E0808180628C93A3E5B0E09A
:1034F000E3E5F0E080818F7E8C93A3E5B0E0E3E527
:10350000F0E0808182608C93A3E5B0E0E3E5F0E039
:1035100080818B7F8C93A3E5B0E0E3E5F0E08081D0
:103520008E7F8C930F90CF91DF9108951F920F9211
:103530000FB60F9211242F933F934F935F936F9386
:103540007F938F939F93AF93BF93EF93FF93DF93FB
:10355000CF93CDB7DEB7E0918901F0918A0109954B
:10356000CF91DF91FF91EF91BF91AF919F918F919B
:103570007F916F915F914F913F912F910F900FBE6F
:103580000F901F9018951F920F920FB60F92112453
:103590002F933F934F935F936F937F938F939F935B
:1035A000AF93BF93EF93FF93DF93CF93CDB7DEB786
:1035B000E0918B01F0918C010995CF91DF91FF9102
:1035C000EF91BF91AF919F918F917F916F915F919B
:1035D0004F913F912F910F900FBE0F901F90189514
:1035E000DF93CF9300D000D0CDB7DEB79A83898325
:1035F000E981FA818581282F30E03C832B838B8100
:103600009C81009731F02B813C812130310531F0D4
:1036100009C089819A810E94631B04C089819A81B3
:103620000E94BB1B0F900F900F900F90CF91DF91D6
:103630000895DF93CF93CDB7DEB7AEE4B0E0EEE40C
:10364000F0E08081887F8C93ECE4F0E011821082BE
:10365000EFE4F0E01082E9E5F0E01082EAE4F0E067
:1036600011821082CF91DF910895DF93CF9300D024
:1036700000D00F92CDB7DEB789837B836A838981BF
:10368000282F30E03D832C838C819D81009731F081
:103690002C813D812130310541F00DC08A819B8113
:1036A00090938A018093890106C08A819B819093BF
:1036B0008C0180938B010F900F900F900F900F90C3
:1036C000CF91DF910895DF93CF9300D0CDB7DEB7D0
:1036D0009A838983AFE4B0E0EFE4F0E08081886012
:1036E0008C93AFE4B0E0EFE4F0E0808184608C93F1
:1036F000E981FA8185818823E1F4AFE4B0E0EFE469
:10370000F0E080818E7F8C93AFE4B0E0EFE4F0E0F6
:1037100080818D7F8C93AEE4B0E0EEE4F0E08081B8
:10372000877F8C93AEE4B0E0EEE4F0E080818F7EA2
:103730008C93AEE4B0E0EEE4F0E08081982F987FC7
:10374000E981FA8184818770892B8C93A9E5B0E0A7
:10375000E9E5F0E0808184608C93ACE4B0E0E9813D
:10376000FA818081918111969C938E930F900F9096
:10377000CF91DF910895DF93CF9300D0CDB7DEB71F
:103780009A838983AFE4B0E0EFE4F0E08081886061
:103790008C93AFE4B0E0EFE4F0E0808184608C9340
:1037A000E981FA8185818130E1F4AFE4B0E0EFE4B2
:1037B000F0E080818E7F8C93AFE4B0E0EFE4F0E046
:1037C00080818D7F8C93AEE4B0E0EEE4F0E0808108
:1037D00088608C93AEE4B0E0EEE4F0E080818F7E10
:1037E0008C93AEE4B0E0EEE4F0E08081982F987F17
:1037F000E981FA8184818770892B8C93A9E5B0E0F7
:10380000E9E5F0E0808180618C93ACE4B0E0E9818F
:10381000FA818081918111969C938E93AAE4B0E005
:10382000E981FA818281938111969C938E930F9006
:103830000F90CF91DF910895DF93CF9300D0CDB754
:10384000DEB79A838983A0E2B0E0E981FA818181C1
:103850008C93E1E2F0E01082A2E2B0E0E981FA812B
:1038600080818C93E6E5F0E084E080830F900F90F8
:10387000CF91DF910895DF93CF93CDB7DEB7E6E523
:10388000F0E084EA8083E6E5F0E080818823DCF7DD
:10389000CF91DF910895DF93CF93CDB7DEB7E6E503
:1038A000F0E084E98083CF91DF910895DF93CF9397
:1038B0000F92CDB7DEB78983E3E2F0E089818083A0
:1038C000E6E5F0E084E88083E6E5F0E080818823A7
:1038D000DCF70F90CF91DF910895DF93CF93CDB7B1
:1038E000DEB7E6E5F0E084EC8083E6E5F0E0808199
:1038F0008823DCF7E3E2F0E08081CF91DF91089547
:10390000DF93CF93CDB7DEB7E6E5F0E084E88083C0
:10391000E6E5F0E080818823DCF7E3E2F0E08081F7
:10392000CF91DF910895DF93CF930F92CDB7DEB79C
:10393000E1E2F0E08081887F898389810F90CF91D7
:10394000DF910895DF93CF9300D000D0CDB7DEB7DD
:103950009C838B831A821982EBE2F0E082E0808301
:10396000EAE2F0E01082AAE2B0E0EAE2F0E0808170
:1039700080618C93AAE2B0E0EAE2F0E080818860A6
:103980008C93E0E4F0E01082A0E4B0E0E0E4F0E04A
:10399000808180688C93A0E4B0E0E0E4F0E0808176
:1039A000282F2F7CEB81FC818181882F90E08295EC
:1039B0009295907F9827807F9827822B8C93A0E404
:1039C000B0E0E0E4F0E08081282F277FEB81FC81EC
:1039D0008281882F90E0880F991F880F991F880F88
:1039E000991F822B8C93EB81FC8180818730C1F4FD
:1039F000A0E4B0E0E0E4F0E08081282F297FEB81B3
:103A0000FC818081882F90E0880F991F822B8C93F6
:103A1000AAE2B0E0EAE2F0E0808184608C9317C013
:103A2000A0E4B0E0E0E4F0E08081282F297FEB8182
:103A3000FC818081882F90E0880F991F822B8C93C6
:103A4000AAE2B0E0EAE2F0E080818B7F8C93EB8128
:103A5000FC8183819481A581B681880F991FAA1F5B
:103A6000BB1F880F991FAA1FBB1F880F991FAA1F72
:103A7000BB1F9C01AD0180E092E1AAE7B0E0BC0170
:103A8000CD010E94581EDA01C90101979A838983EA
:103A9000E0E4F0E089819A81892F99278083E9E227
:103AA000F0E0898180830F900F900F900F90CF915D
:103AB000DF910895DF93CF9300D000D000D0CDB731
:103AC000DEB76B837C838D839E831A821982EBE23F
:103AD000F0E082E08083EAE2F0E01082AAE2B0E067
:103AE000EAE2F0E0808180618C93AAE2B0E0EAE251
:103AF000F0E0808188608C93E0E4F0E01082A0E444
:103B0000B0E0E0E4F0E0808180688C93A0E4B0E075
:103B1000E0E4F0E0808182608C93A0E4B0E0E0E437
:103B2000F0E0808184608C938B819C81AD81BE812B
:103B3000880F991FAA1FBB1F880F991FAA1FBB1FA1
:103B4000880F991FAA1FBB1F9C01AD0180E092E165
:103B5000AAE7B0E0BC01CD010E94581EDA01C901FC
:103B600001979A838983E0E4F0E089819A81892F23
:103B700099278083E9E2F0E08981808326960FB659
:103B8000F894DEBF0FBECDBFCF91DF910895DF93D4
:103B9000CF930F92CDB7DEB78983EBE2F0E080815F
:103BA000882F90E0807290700097B9F3ECE2F0E01B
:103BB000898180830F90CF91DF910895DF93CF9318
:103BC000CDB7DEB7EBE2F0E080818823DCF7ECE2F2
:103BD000F0E08081CF91DF910895DF93CF9300D003
:103BE0000F92CDB7DEB79B838A8319820EC089817D
:103BF000282F30E08A819B81FC01E20FF31F808136
:103C00000E94C71D89818F5F89838981282F30E0B9
:103C10008A819B81FC01E20FF31F8081882339F7A1
:103C20000F900F900F90CF91DF9108950F931F93F6
:103C3000DF93CF9300D00F92CDB7DEB79B838A83FB
:103C400019828981282F30E08A819B818C01020FA3
:103C5000131F0E94DE1DF80180838981282F30E028
:103C60008A819B81FC01E20FF31F8081833279F00E
:103C700089818F5F89838981282F30E08A819B81A8
:103C80008C01020F131F0E94DE1DF80180838981C1
:103C9000282F30E08A819B81FC01E20FF31F108204
:103CA0000F900F900F90CF91DF911F910F9108957A
:103CB000A1E21A2EAA1BBB1BFD010DC0AA1FBB1F30
:103CC000EE1FFF1FA217B307E407F50720F0A21BA2
:103CD000B30BE40BF50B661F771F881F991F1A940F
:103CE00069F760957095809590959B01AC01BD0139
:103CF000CF0108952F923F924F925F926F927F92E1
:103D00008F929F92AF92BF92CF92DF92EF92FF92EB
:103D10000F931F93CF93DF93CDB7DEB7CA1BDB0B97
:103D20000FB6F894DEBF0FBECDBF09942A8839883C
:103D300048885F846E847D848C849B84AA84B98443
:103D4000C884DF80EE80FD800C811B81AA81B9814F
:103D5000CE0FD11D0FB6F894DEBF0FBECDBFED0163
:103D60000895FB019F01E8944230C4F04532B4F459
:103D70004A3029F497FB1EF4909581959F4F642F4C
:103D800077270E94E21E805D8A330CF0895D819363
:103D9000CB010097A1F716F45DE251931082C9019F
:103DA0000C94D21EDC01FC01672F71917723E1F79F
:103DB000329704C07C916D9370836291AE17BF07F8
:103DC000C8F30895AA1BBB1B51E107C0AA1FBB1F64
:103DD000A617B70710F0A61BB70B881F991F5A9597
:103DE000A9F780959095BC01CD010895F894FFCF77
:103DF00000000000000000000001020203030303B2
:103E0000040404040404040405050505050505056A
:103E1000050505050505050506060606060606064A
:103E20000606060606060606060606060606060632
:103E3000060606060606060607070707070707071A
:103E40000707070707070707070707070707070702
:103E500007070707070707070707070707070707F2
:103E600007070707070707070707070707070707E2
:103E700007070707070707070808080808080808CA
:103E800008080808080808080808080808080808B2
:103E900008080808080808080808080808080808A2
:103EA0000808080808080808080808080808080892
:103EB0000808080808080808080808080808080882
:103EC0000808080808080808080808080808080872
:103ED0000808080808080808080808080808080862
:103EE0000808080808080808080808080808080852
:103EF0000808080808080808FFFFFFFFFFFFFFFF8A
:103F0000FFFF030000802500000000093D04015E62
:083F100005000004000100009F
:00000001FF
